{
  "_format": "hh-sol-artifact-1",
  "contractName": "Funding",
  "sourceName": "contracts/reward_funding.sol",
  "abi": [
    {
      "inputs": [
        {
          "internalType": "uint256",
          "name": "_amt",
          "type": "uint256"
        },
        {
          "internalType": "uint256",
          "name": "_starTime",
          "type": "uint256"
        },
        {
          "internalType": "uint256",
          "name": "_endTime",
          "type": "uint256"
        }
      ],
      "stateMutability": "nonpayable",
      "type": "constructor"
    },
    {
      "anonymous": false,
      "inputs": [
        {
          "indexed": true,
          "internalType": "address",
          "name": "owner",
          "type": "address"
        },
        {
          "indexed": true,
          "internalType": "address",
          "name": "approved",
          "type": "address"
        },
        {
          "indexed": true,
          "internalType": "uint256",
          "name": "tokenId",
          "type": "uint256"
        }
      ],
      "name": "Approval",
      "type": "event"
    },
    {
      "anonymous": false,
      "inputs": [
        {
          "indexed": true,
          "internalType": "address",
          "name": "owner",
          "type": "address"
        },
        {
          "indexed": true,
          "internalType": "address",
          "name": "operator",
          "type": "address"
        },
        {
          "indexed": false,
          "internalType": "bool",
          "name": "approved",
          "type": "bool"
        }
      ],
      "name": "ApprovalForAll",
      "type": "event"
    },
    {
      "anonymous": false,
      "inputs": [
        {
          "indexed": true,
          "internalType": "address",
          "name": "from",
          "type": "address"
        },
        {
          "indexed": true,
          "internalType": "address",
          "name": "to",
          "type": "address"
        },
        {
          "indexed": true,
          "internalType": "uint256",
          "name": "tokenId",
          "type": "uint256"
        }
      ],
      "name": "Transfer",
      "type": "event"
    },
    {
      "anonymous": false,
      "inputs": [
        {
          "indexed": false,
          "internalType": "address",
          "name": "from",
          "type": "address"
        },
        {
          "indexed": false,
          "internalType": "uint256",
          "name": "value",
          "type": "uint256"
        }
      ],
      "name": "invested",
      "type": "event"
    },
    {
      "anonymous": false,
      "inputs": [
        {
          "indexed": false,
          "internalType": "address",
          "name": "from",
          "type": "address"
        },
        {
          "indexed": false,
          "internalType": "address",
          "name": "to",
          "type": "address"
        },
        {
          "indexed": false,
          "internalType": "uint256",
          "name": "value",
          "type": "uint256"
        }
      ],
      "name": "toInvsetors",
      "type": "event"
    },
    {
      "anonymous": false,
      "inputs": [
        {
          "indexed": false,
          "internalType": "address",
          "name": "from",
          "type": "address"
        },
        {
          "indexed": false,
          "internalType": "address",
          "name": "to",
          "type": "address"
        },
        {
          "indexed": false,
          "internalType": "uint256",
          "name": "value",
          "type": "uint256"
        }
      ],
      "name": "toManager",
      "type": "event"
    },
    {
      "inputs": [],
      "name": "FundsToManager",
      "outputs": [],
      "stateMutability": "payable",
      "type": "function"
    },
    {
      "inputs": [],
      "name": "amntRequired",
      "outputs": [
        {
          "internalType": "uint256",
          "name": "a",
          "type": "uint256"
        }
      ],
      "stateMutability": "view",
      "type": "function"
    },
    {
      "inputs": [
        {
          "internalType": "address",
          "name": "to",
          "type": "address"
        },
        {
          "internalType": "uint256",
          "name": "tokenId",
          "type": "uint256"
        }
      ],
      "name": "approve",
      "outputs": [],
      "stateMutability": "nonpayable",
      "type": "function"
    },
    {
      "inputs": [
        {
          "internalType": "address",
          "name": "owner",
          "type": "address"
        }
      ],
      "name": "balanceOf",
      "outputs": [
        {
          "internalType": "uint256",
          "name": "",
          "type": "uint256"
        }
      ],
      "stateMutability": "view",
      "type": "function"
    },
    {
      "inputs": [],
      "name": "contractBalance",
      "outputs": [
        {
          "internalType": "uint256",
          "name": "",
          "type": "uint256"
        }
      ],
      "stateMutability": "view",
      "type": "function"
    },
    {
      "inputs": [],
      "name": "endTime",
      "outputs": [
        {
          "internalType": "uint256",
          "name": "",
          "type": "uint256"
        }
      ],
      "stateMutability": "view",
      "type": "function"
    },
    {
      "inputs": [
        {
          "internalType": "uint256",
          "name": "tokenId",
          "type": "uint256"
        }
      ],
      "name": "getApproved",
      "outputs": [
        {
          "internalType": "address",
          "name": "",
          "type": "address"
        }
      ],
      "stateMutability": "view",
      "type": "function"
    },
    {
      "inputs": [],
      "name": "goalAmt",
      "outputs": [
        {
          "internalType": "uint256",
          "name": "",
          "type": "uint256"
        }
      ],
      "stateMutability": "view",
      "type": "function"
    },
    {
      "inputs": [],
      "name": "goalTime",
      "outputs": [
        {
          "internalType": "uint256",
          "name": "",
          "type": "uint256"
        }
      ],
      "stateMutability": "view",
      "type": "function"
    },
    {
      "inputs": [],
      "name": "hasFundingEnded",
      "outputs": [
        {
          "internalType": "bool",
          "name": "",
          "type": "bool"
        }
      ],
      "stateMutability": "view",
      "type": "function"
    },
    {
      "inputs": [],
      "name": "hasFundingStarted",
      "outputs": [
        {
          "internalType": "bool",
          "name": "",
          "type": "bool"
        }
      ],
      "stateMutability": "view",
      "type": "function"
    },
    {
      "inputs": [
        {
          "internalType": "address",
          "name": "",
          "type": "address"
        }
      ],
      "name": "investors",
      "outputs": [
        {
          "internalType": "uint256",
          "name": "",
          "type": "uint256"
        }
      ],
      "stateMutability": "view",
      "type": "function"
    },
    {
      "inputs": [],
      "name": "investorsHistory",
      "outputs": [
        {
          "internalType": "address[]",
          "name": "",
          "type": "address[]"
        }
      ],
      "stateMutability": "view",
      "type": "function"
    },
    {
      "inputs": [
        {
          "internalType": "address",
          "name": "owner",
          "type": "address"
        },
        {
          "internalType": "address",
          "name": "operator",
          "type": "address"
        }
      ],
      "name": "isApprovedForAll",
      "outputs": [
        {
          "internalType": "bool",
          "name": "",
          "type": "bool"
        }
      ],
      "stateMutability": "view",
      "type": "function"
    },
    {
      "inputs": [],
      "name": "manager",
      "outputs": [
        {
          "internalType": "address payable",
          "name": "",
          "type": "address"
        }
      ],
      "stateMutability": "view",
      "type": "function"
    },
    {
      "inputs": [],
      "name": "mintReward",
      "outputs": [],
      "stateMutability": "nonpayable",
      "type": "function"
    },
    {
      "inputs": [],
      "name": "name",
      "outputs": [
        {
          "internalType": "string",
          "name": "",
          "type": "string"
        }
      ],
      "stateMutability": "view",
      "type": "function"
    },
    {
      "inputs": [],
      "name": "noOfInvestors",
      "outputs": [
        {
          "internalType": "uint256",
          "name": "",
          "type": "uint256"
        }
      ],
      "stateMutability": "view",
      "type": "function"
    },
    {
      "inputs": [
        {
          "internalType": "uint256",
          "name": "tokenId",
          "type": "uint256"
        }
      ],
      "name": "ownerOf",
      "outputs": [
        {
          "internalType": "address",
          "name": "",
          "type": "address"
        }
      ],
      "stateMutability": "view",
      "type": "function"
    },
    {
      "inputs": [],
      "name": "reFundingToInvestors",
      "outputs": [],
      "stateMutability": "nonpayable",
      "type": "function"
    },
    {
      "inputs": [
        {
          "internalType": "address",
          "name": "from",
          "type": "address"
        },
        {
          "internalType": "address",
          "name": "to",
          "type": "address"
        },
        {
          "internalType": "uint256",
          "name": "tokenId",
          "type": "uint256"
        }
      ],
      "name": "safeTransferFrom",
      "outputs": [],
      "stateMutability": "nonpayable",
      "type": "function"
    },
    {
      "inputs": [
        {
          "internalType": "address",
          "name": "from",
          "type": "address"
        },
        {
          "internalType": "address",
          "name": "to",
          "type": "address"
        },
        {
          "internalType": "uint256",
          "name": "tokenId",
          "type": "uint256"
        },
        {
          "internalType": "bytes",
          "name": "data",
          "type": "bytes"
        }
      ],
      "name": "safeTransferFrom",
      "outputs": [],
      "stateMutability": "nonpayable",
      "type": "function"
    },
    {
      "inputs": [
        {
          "internalType": "address",
          "name": "operator",
          "type": "address"
        },
        {
          "internalType": "bool",
          "name": "approved",
          "type": "bool"
        }
      ],
      "name": "setApprovalForAll",
      "outputs": [],
      "stateMutability": "nonpayable",
      "type": "function"
    },
    {
      "inputs": [],
      "name": "startTime",
      "outputs": [
        {
          "internalType": "uint256",
          "name": "",
          "type": "uint256"
        }
      ],
      "stateMutability": "view",
      "type": "function"
    },
    {
      "inputs": [
        {
          "internalType": "bytes4",
          "name": "interfaceId",
          "type": "bytes4"
        }
      ],
      "name": "supportsInterface",
      "outputs": [
        {
          "internalType": "bool",
          "name": "",
          "type": "bool"
        }
      ],
      "stateMutability": "view",
      "type": "function"
    },
    {
      "inputs": [],
      "name": "symbol",
      "outputs": [
        {
          "internalType": "string",
          "name": "",
          "type": "string"
        }
      ],
      "stateMutability": "view",
      "type": "function"
    },
    {
      "inputs": [],
      "name": "toGetfunds",
      "outputs": [],
      "stateMutability": "payable",
      "type": "function"
    },
    {
      "inputs": [],
      "name": "tokenId",
      "outputs": [
        {
          "internalType": "uint256",
          "name": "",
          "type": "uint256"
        }
      ],
      "stateMutability": "view",
      "type": "function"
    },
    {
      "inputs": [
        {
          "internalType": "uint256",
          "name": "tokenId",
          "type": "uint256"
        }
      ],
      "name": "tokenURI",
      "outputs": [
        {
          "internalType": "string",
          "name": "",
          "type": "string"
        }
      ],
      "stateMutability": "view",
      "type": "function"
    },
    {
      "inputs": [],
      "name": "totalAmt",
      "outputs": [
        {
          "internalType": "uint256",
          "name": "",
          "type": "uint256"
        }
      ],
      "stateMutability": "view",
      "type": "function"
    },
    {
      "inputs": [
        {
          "internalType": "address",
          "name": "from",
          "type": "address"
        },
        {
          "internalType": "address",
          "name": "to",
          "type": "address"
        },
        {
          "internalType": "uint256",
          "name": "tokenId",
          "type": "uint256"
        }
      ],
      "name": "transferFrom",
      "outputs": [],
      "stateMutability": "nonpayable",
      "type": "function"
    }
  ],
  "bytecode": "0x60806040526000600a553480156200001657600080fd5b5060405162003d0438038062003d0483398181016040528101906200003c91906200021e565b6040518060400160405280600c81526020017f4d696e692070726f6a65637400000000000000000000000000000000000000008152506040518060400160405280600281526020017f4d4e0000000000000000000000000000000000000000000000000000000000008152508160009080519060200190620000c092919062000157565b508060019080519060200190620000d992919062000157565b50505082600c819055508142620000f191906200027a565b600f8190555080600f546200010791906200027a565b600e8190555033600960006101000a81548173ffffffffffffffffffffffffffffffffffffffff021916908373ffffffffffffffffffffffffffffffffffffffff16021790555050505062000394565b8280546200016590620002e1565b90600052602060002090601f016020900481019282620001895760008555620001d5565b82601f10620001a457805160ff1916838001178555620001d5565b82800160010185558215620001d5579182015b82811115620001d4578251825591602001919060010190620001b7565b5b509050620001e49190620001e8565b5090565b5b8082111562000203576000816000905550600101620001e9565b5090565b60008151905062000218816200037a565b92915050565b6000806000606084860312156200023a576200023962000375565b5b60006200024a8682870162000207565b93505060206200025d8682870162000207565b9250506040620002708682870162000207565b9150509250925092565b60006200028782620002d7565b91506200029483620002d7565b9250827fffffffffffffffffffffffffffffffffffffffffffffffffffffffffffffffff03821115620002cc57620002cb62000317565b5b828201905092915050565b6000819050919050565b60006002820490506001821680620002fa57607f821691505b6020821081141562000311576200031062000346565b5b50919050565b7f4e487b7100000000000000000000000000000000000000000000000000000000600052601160045260246000fd5b7f4e487b7100000000000000000000000000000000000000000000000000000000600052602260045260246000fd5b600080fd5b6200038581620002d7565b81146200039157600080fd5b50565b61396080620003a46000396000f3fe6080604052600436106101d85760003560e01c80636352211e11610102578063a22cb46511610095578063dc25852f11610064578063dc25852f1461067f578063df068438146106aa578063e9595a7f146106d5578063e985e9c5146106df576101d8565b8063a22cb465146105c5578063a73b1216146105ee578063b88d4fde14610619578063c87b56dd14610642576101d8565b806378e97925116100d157806378e97925146105195780638b7afe2e146105445780639075825b1461056f57806395d89b411461059a576101d8565b80636352211e146104375780636f7bc9be1461047457806370a08231146104b157806377dee015146104ee576101d8565b8063208152db1161017a5780633ba01132116101495780633ba011321461038d5780633d7de6b6146103b857806342842e0e146103e3578063481c6a751461040c576101d8565b8063208152db146102f757806323b872dd146103225780632d2973631461034b5780633197cbb614610362576101d8565b8063095ea7b3116101b6578063095ea7b3146102825780630ac9a58d146102ab578063174f57af146102b557806317d70f7c146102cc576101d8565b806301ffc9a7146101dd57806306fdde031461021a578063081812fc14610245575b600080fd5b3480156101e957600080fd5b5061020460048036038101906101ff91906126b9565b61071c565b6040516102119190612cce565b60405180910390f35b34801561022657600080fd5b5061022f6107fe565b60405161023c9190612ce9565b60405180910390f35b34801561025157600080fd5b5061026c60048036038101906102679190612713565b610890565b6040516102799190612b93565b60405180910390f35b34801561028e57600080fd5b506102a960048036038101906102a49190612679565b6108d6565b005b6102b36109ee565b005b3480156102c157600080fd5b506102ca610b64565b005b3480156102d857600080fd5b506102e1610d0a565b6040516102ee9190612f8b565b60405180910390f35b34801561030357600080fd5b5061030c610d10565b6040516103199190612f8b565b60405180910390f35b34801561032e57600080fd5b5061034960048036038101906103449190612563565b610d16565b005b34801561035757600080fd5b50610360610d76565b005b34801561036e57600080fd5b50610377610f5c565b6040516103849190612f8b565b60405180910390f35b34801561039957600080fd5b506103a2610f62565b6040516103af9190612f8b565b60405180910390f35b3480156103c457600080fd5b506103cd610f8f565b6040516103da9190612cce565b60405180910390f35b3480156103ef57600080fd5b5061040a60048036038101906104059190612563565b610fac565b005b34801561041857600080fd5b50610421610fcc565b60405161042e9190612bae565b60405180910390f35b34801561044357600080fd5b5061045e60048036038101906104599190612713565b610ff2565b60405161046b9190612b93565b60405180910390f35b34801561048057600080fd5b5061049b600480360381019061049691906124f6565b6110a4565b6040516104a89190612f8b565b60405180910390f35b3480156104bd57600080fd5b506104d860048036038101906104d391906124f6565b6110bc565b6040516104e59190612f8b565b60405180910390f35b3480156104fa57600080fd5b50610503611174565b6040516105109190612cac565b60405180910390f35b34801561052557600080fd5b5061052e611202565b60405161053b9190612f8b565b60405180910390f35b34801561055057600080fd5b50610559611208565b6040516105669190612f8b565b60405180910390f35b34801561057b57600080fd5b50610584611210565b6040516105919190612f8b565b60405180910390f35b3480156105a657600080fd5b506105af611216565b6040516105bc9190612ce9565b60405180910390f35b3480156105d157600080fd5b506105ec60048036038101906105e79190612639565b6112a8565b005b3480156105fa57600080fd5b506106036112be565b6040516106109190612cce565b60405180910390f35b34801561062557600080fd5b50610640600480360381019061063b91906125b6565b6112da565b005b34801561064e57600080fd5b5061066960048036038101906106649190612713565b61133c565b6040516106769190612ce9565b60405180910390f35b34801561068b57600080fd5b506106946113a4565b6040516106a19190612f8b565b60405180910390f35b3480156106b657600080fd5b506106bf6113aa565b6040516106cc9190612f8b565b60405180910390f35b6106dd6113b0565b005b3480156106eb57600080fd5b5061070660048036038101906107019190612523565b6117cc565b6040516107139190612cce565b60405180910390f35b60007f80ac58cd000000000000000000000000000000000000000000000000000000007bffffffffffffffffffffffffffffffffffffffffffffffffffffffff1916827bffffffffffffffffffffffffffffffffffffffffffffffffffffffff191614806107e757507f5b5e139f000000000000000000000000000000000000000000000000000000007bffffffffffffffffffffffffffffffffffffffffffffffffffffffff1916827bffffffffffffffffffffffffffffffffffffffffffffffffffffffff1916145b806107f757506107f682611860565b5b9050919050565b60606000805461080d90613231565b80601f016020809104026020016040519081016040528092919081815260200182805461083990613231565b80156108865780601f1061085b57610100808354040283529160200191610886565b820191906000526020600020905b81548152906001019060200180831161086957829003601f168201915b5050505050905090565b600061089b826118ca565b6004600083815260200190815260200160002060009054906101000a900473ffffffffffffffffffffffffffffffffffffffff169050919050565b60006108e182610ff2565b90508073ffffffffffffffffffffffffffffffffffffffff168373ffffffffffffffffffffffffffffffffffffffff161415610952576040517f08c379a000000000000000000000000000000000000000000000000000000000815260040161094990612eab565b60405180910390fd5b8073ffffffffffffffffffffffffffffffffffffffff16610971611915565b73ffffffffffffffffffffffffffffffffffffffff1614806109a0575061099f8161099a611915565b6117cc565b5b6109df576040517f08c379a00000000000000000000000000000000000000000000000000000000081526004016109d690612e4b565b60405180910390fd5b6109e9838361191d565b505050565b600960009054906101000a900473ffffffffffffffffffffffffffffffffffffffff1673ffffffffffffffffffffffffffffffffffffffff163373ffffffffffffffffffffffffffffffffffffffff1614610a7e576040517f08c379a0000000000000000000000000000000000000000000000000000000008152600401610a7590612f6b565b60405180910390fd5b600e5442118015610a935750600c54600a5410155b610a9c57600080fd5b600960009054906101000a900473ffffffffffffffffffffffffffffffffffffffff1673ffffffffffffffffffffffffffffffffffffffff166108fc479081150290604051600060405180830381858888f19350505050158015610b04573d6000803e3d6000fd5b507f07a5ab2ddc4910156c0bc8930cd50855e09c614e331ea05dc771ce4e2e5ee8fb30600960009054906101000a900473ffffffffffffffffffffffffffffffffffffffff1647604051610b5a93929190612bc9565b60405180910390a1565b600e5442118015610b795750600c54600a5410155b610bb8576040517f08c379a0000000000000000000000000000000000000000000000000000000008152600401610baf90612d8b565b60405180910390fd5b601160003373ffffffffffffffffffffffffffffffffffffffff1673ffffffffffffffffffffffffffffffffffffffff16815260200190815260200160002060009054906101000a900460ff16610c44576040517f08c379a0000000000000000000000000000000000000000000000000000000008152600401610c3b90612e2b565b60405180910390fd5b600b5460125410610c8a576040517f08c379a0000000000000000000000000000000000000000000000000000000008152600401610c8190612ecb565b60405180910390fd5b610c96336012546119d6565b6000601160003373ffffffffffffffffffffffffffffffffffffffff1673ffffffffffffffffffffffffffffffffffffffff16815260200190815260200160002060006101000a81548160ff021916908315150217905550600160126000828254610d019190613078565b92505081905550565b60125481565b600c5481565b610d27610d21611915565b82611bb0565b610d66576040517f08c379a0000000000000000000000000000000000000000000000000000000008152600401610d5d90612f4b565b60405180910390fd5b610d71838383611c45565b505050565b6000600660003373ffffffffffffffffffffffffffffffffffffffff1673ffffffffffffffffffffffffffffffffffffffff1681526020019081526020016000205411610df8576040517f08c379a0000000000000000000000000000000000000000000000000000000008152600401610def90612eeb565b60405180910390fd5b600e5442118015610e0c5750600c54600a54105b610e1557600080fd5b3373ffffffffffffffffffffffffffffffffffffffff166108fc600660003373ffffffffffffffffffffffffffffffffffffffff1673ffffffffffffffffffffffffffffffffffffffff168152602001908152602001600020549081150290604051600060405180830381858888f19350505050158015610e9a573d6000803e3d6000fd5b507f1224e8211e3a580edbb682c18697495a9357f3f1e47efe4e083e73dea465e01f3033600660003373ffffffffffffffffffffffffffffffffffffffff1673ffffffffffffffffffffffffffffffffffffffff16815260200190815260200160002054604051610f0d93929190612c00565b60405180910390a16000600660003373ffffffffffffffffffffffffffffffffffffffff1673ffffffffffffffffffffffffffffffffffffffff16815260200190815260200160002081905550565b600e5481565b6000600c54600a541015610f8757600a54600c54610f8091906130ff565b9050610f8c565b600090505b90565b6000600e54421115610fa45760019050610fa9565b600090505b90565b610fc7838383604051806020016040528060008152506112da565b505050565b600960009054906101000a900473ffffffffffffffffffffffffffffffffffffffff1681565b6000806002600084815260200190815260200160002060009054906101000a900473ffffffffffffffffffffffffffffffffffffffff169050600073ffffffffffffffffffffffffffffffffffffffff168173ffffffffffffffffffffffffffffffffffffffff16141561109b576040517f08c379a000000000000000000000000000000000000000000000000000000000815260040161109290612e8b565b60405180910390fd5b80915050919050565b60066020528060005260406000206000915090505481565b60008073ffffffffffffffffffffffffffffffffffffffff168273ffffffffffffffffffffffffffffffffffffffff16141561112d576040517f08c379a000000000000000000000000000000000000000000000000000000000815260040161112490612deb565b60405180910390fd5b600360008373ffffffffffffffffffffffffffffffffffffffff1673ffffffffffffffffffffffffffffffffffffffff168152602001908152602001600020549050919050565b606060078054806020026020016040519081016040528092919081815260200182805480156111f857602002820191906000526020600020905b8160009054906101000a900473ffffffffffffffffffffffffffffffffffffffff1673ffffffffffffffffffffffffffffffffffffffff16815260200190600101908083116111ae575b5050505050905090565b600f5481565b600047905090565b600b5481565b60606001805461122590613231565b80601f016020809104026020016040519081016040528092919081815260200182805461125190613231565b801561129e5780601f106112735761010080835404028352916020019161129e565b820191906000526020600020905b81548152906001019060200180831161128157829003601f168201915b5050505050905090565b6112ba6112b3611915565b8383611eac565b5050565b6000600f5442106112d257600190506112d7565b600090505b90565b6112eb6112e5611915565b83611bb0565b61132a576040517f08c379a000000000000000000000000000000000000000000000000000000000815260040161132190612f4b565b60405180910390fd5b61133684848484612019565b50505050565b6060611347826118ca565b6000611351612075565b90506000815111611371576040518060200160405280600081525061139c565b8061137b8461208c565b60405160200161138c929190612b6f565b6040516020818303038152906040525b915050919050565b600a5481565b600d5481565b3373ffffffffffffffffffffffffffffffffffffffff16600960009054906101000a900473ffffffffffffffffffffffffffffffffffffffff1673ffffffffffffffffffffffffffffffffffffffff161415611441576040517f08c379a000000000000000000000000000000000000000000000000000000000815260040161143890612d0b565b60405180910390fd5b60003411611484576040517f08c379a000000000000000000000000000000000000000000000000000000000815260040161147b90612f0b565b60405180910390fd5b600f544210156114c9576040517f08c379a00000000000000000000000000000000000000000000000000000000081526004016114c090612e0b565b60405180910390fd5b60006114d3610f62565b11611513576040517f08c379a000000000000000000000000000000000000000000000000000000000815260040161150a90612f2b565b60405180910390fd5b600860003373ffffffffffffffffffffffffffffffffffffffff1673ffffffffffffffffffffffffffffffffffffffff16815260200190815260200160002060009054906101000a900460ff166116ee5734600660003373ffffffffffffffffffffffffffffffffffffffff1673ffffffffffffffffffffffffffffffffffffffff1681526020019081526020016000208190555034600a546115b69190613078565b600a819055506007339080600181540180825580915050600190039060005260206000200160009091909190916101000a81548173ffffffffffffffffffffffffffffffffffffffff021916908373ffffffffffffffffffffffffffffffffffffffff1602179055506001600b60008282546116329190613078565b925050819055506001600860003373ffffffffffffffffffffffffffffffffffffffff1673ffffffffffffffffffffffffffffffffffffffff16815260200190815260200160002060006101000a81548160ff0219169083151502179055506001601160003373ffffffffffffffffffffffffffffffffffffffff1673ffffffffffffffffffffffffffffffffffffffff16815260200190815260200160002060006101000a81548160ff021916908315150217905550611791565b600660003373ffffffffffffffffffffffffffffffffffffffff1673ffffffffffffffffffffffffffffffffffffffff16815260200190815260200160002054346117399190613078565b600660003373ffffffffffffffffffffffffffffffffffffffff1673ffffffffffffffffffffffffffffffffffffffff1681526020019081526020016000208190555034600a5461178a9190613078565b600a819055505b7f8a35b8c748e79b158c02fd0c175c0e5bd17677281b628c0dafa1c92631f0c8f033346040516117c2929190612c83565b60405180910390a1565b6000600560008473ffffffffffffffffffffffffffffffffffffffff1673ffffffffffffffffffffffffffffffffffffffff16815260200190815260200160002060008373ffffffffffffffffffffffffffffffffffffffff1673ffffffffffffffffffffffffffffffffffffffff16815260200190815260200160002060009054906101000a900460ff16905092915050565b60007f01ffc9a7000000000000000000000000000000000000000000000000000000007bffffffffffffffffffffffffffffffffffffffffffffffffffffffff1916827bffffffffffffffffffffffffffffffffffffffffffffffffffffffff1916149050919050565b6118d3816121ed565b611912576040517f08c379a000000000000000000000000000000000000000000000000000000000815260040161190990612e8b565b60405180910390fd5b50565b600033905090565b816004600083815260200190815260200160002060006101000a81548173ffffffffffffffffffffffffffffffffffffffff021916908373ffffffffffffffffffffffffffffffffffffffff160217905550808273ffffffffffffffffffffffffffffffffffffffff1661199083610ff2565b73ffffffffffffffffffffffffffffffffffffffff167f8c5be1e5ebec7d5bd14f71427d1e84f3dd0314c0f7b2291e5b200ac8c7c3b92560405160405180910390a45050565b600073ffffffffffffffffffffffffffffffffffffffff168273ffffffffffffffffffffffffffffffffffffffff161415611a46576040517f08c379a0000000000000000000000000000000000000000000000000000000008152600401611a3d90612e6b565b60405180910390fd5b611a4f816121ed565b15611a8f576040517f08c379a0000000000000000000000000000000000000000000000000000000008152600401611a8690612d6b565b60405180910390fd5b611a9b60008383612259565b6001600360008473ffffffffffffffffffffffffffffffffffffffff1673ffffffffffffffffffffffffffffffffffffffff1681526020019081526020016000206000828254611aeb9190613078565b92505081905550816002600083815260200190815260200160002060006101000a81548173ffffffffffffffffffffffffffffffffffffffff021916908373ffffffffffffffffffffffffffffffffffffffff160217905550808273ffffffffffffffffffffffffffffffffffffffff16600073ffffffffffffffffffffffffffffffffffffffff167fddf252ad1be2c89b69c2b068fc378daa952ba7f163c4a11628f55a4df523b3ef60405160405180910390a4611bac6000838361225e565b5050565b600080611bbc83610ff2565b90508073ffffffffffffffffffffffffffffffffffffffff168473ffffffffffffffffffffffffffffffffffffffff161480611bfe5750611bfd81856117cc565b5b80611c3c57508373ffffffffffffffffffffffffffffffffffffffff16611c2484610890565b73ffffffffffffffffffffffffffffffffffffffff16145b91505092915050565b8273ffffffffffffffffffffffffffffffffffffffff16611c6582610ff2565b73ffffffffffffffffffffffffffffffffffffffff1614611cbb576040517f08c379a0000000000000000000000000000000000000000000000000000000008152600401611cb290612d4b565b60405180910390fd5b600073ffffffffffffffffffffffffffffffffffffffff168273ffffffffffffffffffffffffffffffffffffffff161415611d2b576040517f08c379a0000000000000000000000000000000000000000000000000000000008152600401611d2290612dab565b60405180910390fd5b611d36838383612259565b611d4160008261191d565b6001600360008573ffffffffffffffffffffffffffffffffffffffff1673ffffffffffffffffffffffffffffffffffffffff1681526020019081526020016000206000828254611d9191906130ff565b925050819055506001600360008473ffffffffffffffffffffffffffffffffffffffff1673ffffffffffffffffffffffffffffffffffffffff1681526020019081526020016000206000828254611de89190613078565b92505081905550816002600083815260200190815260200160002060006101000a81548173ffffffffffffffffffffffffffffffffffffffff021916908373ffffffffffffffffffffffffffffffffffffffff160217905550808273ffffffffffffffffffffffffffffffffffffffff168473ffffffffffffffffffffffffffffffffffffffff167fddf252ad1be2c89b69c2b068fc378daa952ba7f163c4a11628f55a4df523b3ef60405160405180910390a4611ea783838361225e565b505050565b8173ffffffffffffffffffffffffffffffffffffffff168373ffffffffffffffffffffffffffffffffffffffff161415611f1b576040517f08c379a0000000000000000000000000000000000000000000000000000000008152600401611f1290612dcb565b60405180910390fd5b80600560008573ffffffffffffffffffffffffffffffffffffffff1673ffffffffffffffffffffffffffffffffffffffff16815260200190815260200160002060008473ffffffffffffffffffffffffffffffffffffffff1673ffffffffffffffffffffffffffffffffffffffff16815260200190815260200160002060006101000a81548160ff0219169083151502179055508173ffffffffffffffffffffffffffffffffffffffff168373ffffffffffffffffffffffffffffffffffffffff167f17307eab39ab6107e8899845ad3d59bd9653f200f220920489ca2b5937696c318360405161200c9190612cce565b60405180910390a3505050565b612024848484611c45565b61203084848484612263565b61206f576040517f08c379a000000000000000000000000000000000000000000000000000000000815260040161206690612d2b565b60405180910390fd5b50505050565b606060405180602001604052806000815250905090565b606060008214156120d4576040518060400160405280600181526020017f300000000000000000000000000000000000000000000000000000000000000081525090506121e8565b600082905060005b600082146121065780806120ef90613294565b915050600a826120ff91906130ce565b91506120dc565b60008167ffffffffffffffff811115612122576121216133ca565b5b6040519080825280601f01601f1916602001820160405280156121545781602001600182028036833780820191505090505b5090505b600085146121e15760018261216d91906130ff565b9150600a8561217c91906132dd565b60306121889190613078565b60f81b81838151811061219e5761219d61339b565b5b60200101907effffffffffffffffffffffffffffffffffffffffffffffffffffffffffffff1916908160001a905350600a856121da91906130ce565b9450612158565b8093505050505b919050565b60008073ffffffffffffffffffffffffffffffffffffffff166002600084815260200190815260200160002060009054906101000a900473ffffffffffffffffffffffffffffffffffffffff1673ffffffffffffffffffffffffffffffffffffffff1614159050919050565b505050565b505050565b60006122848473ffffffffffffffffffffffffffffffffffffffff166123fa565b156123ed578373ffffffffffffffffffffffffffffffffffffffff1663150b7a026122ad611915565b8786866040518563ffffffff1660e01b81526004016122cf9493929190612c37565b602060405180830381600087803b1580156122e957600080fd5b505af192505050801561231a57506040513d601f19601f8201168201806040525081019061231791906126e6565b60015b61239d573d806000811461234a576040519150601f19603f3d011682016040523d82523d6000602084013e61234f565b606091505b50600081511415612395576040517f08c379a000000000000000000000000000000000000000000000000000000000815260040161238c90612d2b565b60405180910390fd5b805181602001fd5b63150b7a0260e01b7bffffffffffffffffffffffffffffffffffffffffffffffffffffffff1916817bffffffffffffffffffffffffffffffffffffffffffffffffffffffff1916149150506123f2565b600190505b949350505050565b6000808273ffffffffffffffffffffffffffffffffffffffff163b119050919050565b600061243061242b84612fcb565b612fa6565b90508281526020810184848401111561244c5761244b6133fe565b5b6124578482856131ef565b509392505050565b60008135905061246e816138ce565b92915050565b600081359050612483816138e5565b92915050565b600081359050612498816138fc565b92915050565b6000815190506124ad816138fc565b92915050565b600082601f8301126124c8576124c76133f9565b5b81356124d884826020860161241d565b91505092915050565b6000813590506124f081613913565b92915050565b60006020828403121561250c5761250b613408565b5b600061251a8482850161245f565b91505092915050565b6000806040838503121561253a57612539613408565b5b60006125488582860161245f565b92505060206125598582860161245f565b9150509250929050565b60008060006060848603121561257c5761257b613408565b5b600061258a8682870161245f565b935050602061259b8682870161245f565b92505060406125ac868287016124e1565b9150509250925092565b600080600080608085870312156125d0576125cf613408565b5b60006125de8782880161245f565b94505060206125ef8782880161245f565b9350506040612600878288016124e1565b925050606085013567ffffffffffffffff81111561262157612620613403565b5b61262d878288016124b3565b91505092959194509250565b600080604083850312156126505761264f613408565b5b600061265e8582860161245f565b925050602061266f85828601612474565b9150509250929050565b600080604083850312156126905761268f613408565b5b600061269e8582860161245f565b92505060206126af858286016124e1565b9150509250929050565b6000602082840312156126cf576126ce613408565b5b60006126dd84828501612489565b91505092915050565b6000602082840312156126fc576126fb613408565b5b600061270a8482850161249e565b91505092915050565b60006020828403121561272957612728613408565b5b6000612737848285016124e1565b91505092915050565b600061274c8383612776565b60208301905092915050565b612761816131b9565b82525050565b61277081613145565b82525050565b61277f81613133565b82525050565b61278e81613133565b82525050565b600061279f8261300c565b6127a9818561303a565b93506127b483612ffc565b8060005b838110156127e55781516127cc8882612740565b97506127d78361302d565b9250506001810190506127b8565b5085935050505092915050565b6127fb81613157565b82525050565b600061280c82613017565b612816818561304b565b93506128268185602086016131fe565b61282f8161340d565b840191505092915050565b600061284582613022565b61284f818561305c565b935061285f8185602086016131fe565b6128688161340d565b840191505092915050565b600061287e82613022565b612888818561306d565b93506128988185602086016131fe565b80840191505092915050565b60006128b160198361305c565b91506128bc8261341e565b602082019050919050565b60006128d460328361305c565b91506128df82613447565b604082019050919050565b60006128f760258361305c565b915061290282613496565b604082019050919050565b600061291a601c8361305c565b9150612925826134e5565b602082019050919050565b600061293d60298361305c565b91506129488261350e565b604082019050919050565b600061296060248361305c565b915061296b8261355d565b604082019050919050565b600061298360198361305c565b915061298e826135ac565b602082019050919050565b60006129a660298361305c565b91506129b1826135d5565b604082019050919050565b60006129c9601f8361305c565b91506129d482613624565b602082019050919050565b60006129ec60118361305c565b91506129f78261364d565b602082019050919050565b6000612a0f603e8361305c565b9150612a1a82613676565b604082019050919050565b6000612a3260208361305c565b9150612a3d826136c5565b602082019050919050565b6000612a5560188361305c565b9150612a60826136ee565b602082019050919050565b6000612a7860218361305c565b9150612a8382613717565b604082019050919050565b6000612a9b60118361305c565b9150612aa682613766565b602082019050919050565b6000612abe602a8361305c565b9150612ac98261378f565b604082019050919050565b6000612ae160108361305c565b9150612aec826137de565b602082019050919050565b6000612b0460148361305c565b9150612b0f82613807565b602082019050919050565b6000612b27602e8361305c565b9150612b3282613830565b604082019050919050565b6000612b4a60238361305c565b9150612b558261387f565b604082019050919050565b612b69816131af565b82525050565b6000612b7b8285612873565b9150612b878284612873565b91508190509392505050565b6000602082019050612ba86000830184612785565b92915050565b6000602082019050612bc36000830184612767565b92915050565b6000606082019050612bde6000830186612785565b612beb6020830185612758565b612bf86040830184612b60565b949350505050565b6000606082019050612c156000830186612785565b612c226020830185612785565b612c2f6040830184612b60565b949350505050565b6000608082019050612c4c6000830187612785565b612c596020830186612785565b612c666040830185612b60565b8181036060830152612c788184612801565b905095945050505050565b6000604082019050612c986000830185612785565b612ca56020830184612b60565b9392505050565b60006020820190508181036000830152612cc68184612794565b905092915050565b6000602082019050612ce360008301846127f2565b92915050565b60006020820190508181036000830152612d03818461283a565b905092915050565b60006020820190508181036000830152612d24816128a4565b9050919050565b60006020820190508181036000830152612d44816128c7565b9050919050565b60006020820190508181036000830152612d64816128ea565b9050919050565b60006020820190508181036000830152612d848161290d565b9050919050565b60006020820190508181036000830152612da481612930565b9050919050565b60006020820190508181036000830152612dc481612953565b9050919050565b60006020820190508181036000830152612de481612976565b9050919050565b60006020820190508181036000830152612e0481612999565b9050919050565b60006020820190508181036000830152612e24816129bc565b9050919050565b60006020820190508181036000830152612e44816129df565b9050919050565b60006020820190508181036000830152612e6481612a02565b9050919050565b60006020820190508181036000830152612e8481612a25565b9050919050565b60006020820190508181036000830152612ea481612a48565b9050919050565b60006020820190508181036000830152612ec481612a6b565b9050919050565b60006020820190508181036000830152612ee481612a8e565b9050919050565b60006020820190508181036000830152612f0481612ab1565b9050919050565b60006020820190508181036000830152612f2481612ad4565b9050919050565b60006020820190508181036000830152612f4481612af7565b9050919050565b60006020820190508181036000830152612f6481612b1a565b9050919050565b60006020820190508181036000830152612f8481612b3d565b9050919050565b6000602082019050612fa06000830184612b60565b92915050565b6000612fb0612fc1565b9050612fbc8282613263565b919050565b6000604051905090565b600067ffffffffffffffff821115612fe657612fe56133ca565b5b612fef8261340d565b9050602081019050919050565b6000819050602082019050919050565b600081519050919050565b600081519050919050565b600081519050919050565b6000602082019050919050565b600082825260208201905092915050565b600082825260208201905092915050565b600082825260208201905092915050565b600081905092915050565b6000613083826131af565b915061308e836131af565b9250827fffffffffffffffffffffffffffffffffffffffffffffffffffffffffffffffff038211156130c3576130c261330e565b5b828201905092915050565b60006130d9826131af565b91506130e4836131af565b9250826130f4576130f361333d565b5b828204905092915050565b600061310a826131af565b9150613115836131af565b9250828210156131285761312761330e565b5b828203905092915050565b600061313e8261318f565b9050919050565b60006131508261318f565b9050919050565b60008115159050919050565b60007fffffffff0000000000000000000000000000000000000000000000000000000082169050919050565b600073ffffffffffffffffffffffffffffffffffffffff82169050919050565b6000819050919050565b60006131c4826131cb565b9050919050565b60006131d6826131dd565b9050919050565b60006131e88261318f565b9050919050565b82818337600083830152505050565b60005b8381101561321c578082015181840152602081019050613201565b8381111561322b576000848401525b50505050565b6000600282049050600182168061324957607f821691505b6020821081141561325d5761325c61336c565b5b50919050565b61326c8261340d565b810181811067ffffffffffffffff8211171561328b5761328a6133ca565b5b80604052505050565b600061329f826131af565b91507fffffffffffffffffffffffffffffffffffffffffffffffffffffffffffffffff8214156132d2576132d161330e565b5b600182019050919050565b60006132e8826131af565b91506132f3836131af565b9250826133035761330261333d565b5b828206905092915050565b7f4e487b7100000000000000000000000000000000000000000000000000000000600052601160045260246000fd5b7f4e487b7100000000000000000000000000000000000000000000000000000000600052601260045260246000fd5b7f4e487b7100000000000000000000000000000000000000000000000000000000600052602260045260246000fd5b7f4e487b7100000000000000000000000000000000000000000000000000000000600052603260045260246000fd5b7f4e487b7100000000000000000000000000000000000000000000000000000000600052604160045260246000fd5b600080fd5b600080fd5b600080fd5b600080fd5b6000601f19601f8301169050919050565b7f6f776e65722063616e2774207370616d2074686520706f6f6c00000000000000600082015250565b7f4552433732313a207472616e7366657220746f206e6f6e20455243373231526560008201527f63656976657220696d706c656d656e7465720000000000000000000000000000602082015250565b7f4552433732313a207472616e736665722066726f6d20696e636f72726563742060008201527f6f776e6572000000000000000000000000000000000000000000000000000000602082015250565b7f4552433732313a20746f6b656e20616c7265616479206d696e74656400000000600082015250565b7f6661696c757265206f662066756e64696e6720736f2c20752063616e2774206360008201527f6c61696d206e6674730000000000000000000000000000000000000000000000602082015250565b7f4552433732313a207472616e7366657220746f20746865207a65726f2061646460008201527f7265737300000000000000000000000000000000000000000000000000000000602082015250565b7f4552433732313a20617070726f766520746f2063616c6c657200000000000000600082015250565b7f4552433732313a2061646472657373207a65726f206973206e6f74206120766160008201527f6c6964206f776e65720000000000000000000000000000000000000000000000602082015250565b7f66756e64696e6720706f6f6c206973206e6f7420737461727465642079657400600082015250565b7f796f7572206e6f7420696e766573746f72000000000000000000000000000000600082015250565b7f4552433732313a20617070726f76652063616c6c6572206973206e6f7420746f60008201527f6b656e206f776e6572206e6f7220617070726f76656420666f7220616c6c0000602082015250565b7f4552433732313a206d696e7420746f20746865207a65726f2061646472657373600082015250565b7f4552433732313a20696e76616c696420746f6b656e2049440000000000000000600082015250565b7f4552433732313a20617070726f76616c20746f2063757272656e74206f776e6560008201527f7200000000000000000000000000000000000000000000000000000000000000602082015250565b7f6d696e74696e6720636f6d706c65746564000000000000000000000000000000600082015250565b7f636c61696d656420616c6561726479206f7220757220617265206e6f7420746860008201527f6520696e766573746f7200000000000000000000000000000000000000000000602082015250565b7f6e6f7420656e6f7567682066756e647300000000000000000000000000000000600082015250565b7f66756e64696e6720676f616c2072656163686564000000000000000000000000600082015250565b7f4552433732313a2063616c6c6572206973206e6f7420746f6b656e206f776e6560008201527f72206e6f7220617070726f766564000000000000000000000000000000000000602082015250565b7f6f6e6c792066756e647261697365722063616e20636c61696d2074686520667560008201527f6e64730000000000000000000000000000000000000000000000000000000000602082015250565b6138d781613133565b81146138e257600080fd5b50565b6138ee81613157565b81146138f957600080fd5b50565b61390581613163565b811461391057600080fd5b50565b61391c816131af565b811461392757600080fd5b5056fea264697066735822122024b101b00b9e18072d12c08016ebc63eae06df9bc08472b0a5b093bde742f05964736f6c63430008070033",
  "linkReferences": {},
  "deployedLinkReferences": {}
}