{
  "_format": "hh-sol-artifact-1",
  "contractName": "A",
  "sourceName": "contracts/storage.sol",
  "abi": [
    {
      "inputs": [
        {
          "internalType": "uint256",
          "name": "value",
          "type": "uint256"
        }
      ],
      "name": "addElements",
      "outputs": [],
      "stateMutability": "nonpayable",
      "type": "function"
    }
  ],
  "bytecode": "0x6080604052600a600055601460015534801561001a57600080fd5b506101058061002a6000396000f3fe6080604052348015600f57600080fd5b506004361060285760003560e01c80636bf4419514602d575b600080fd5b60436004803603810190603f91906084565b6045565b005b600281908060018154018082558091505060019003906000526020600020016000909190919091505550565b600081359050607e8160bb565b92915050565b600060208284031215609757609660b6565b5b600060a3848285016071565b91505092915050565b6000819050919050565b600080fd5b60c28160ac565b811460cc57600080fd5b5056fea2646970667358221220b258565085ab0377d1ea1802f1c9cd287d99827c64c2d90d51e02cf75b10705f64736f6c63430008070033",
  "linkReferences": {},
  "deployedLinkReferences": {}
}