{
  "_format": "hh-sol-artifact-1",
  "contractName": "NFTMarketplace",
  "sourceName": "contracts/NFTmarketplace.sol",
  "abi": [
    {
      "anonymous": false,
      "inputs": [
        {
          "indexed": true,
          "internalType": "address",
          "name": "buyer",
          "type": "address"
        },
        {
          "indexed": true,
          "internalType": "address",
          "name": "nftAddress",
          "type": "address"
        },
        {
          "indexed": true,
          "internalType": "uint256",
          "name": "tokenId",
          "type": "uint256"
        },
        {
          "indexed": false,
          "internalType": "uint256",
          "name": "price",
          "type": "uint256"
        }
      ],
      "name": "ItemBought",
      "type": "event"
    },
    {
      "anonymous": false,
      "inputs": [
        {
          "indexed": true,
          "internalType": "address",
          "name": "seller",
          "type": "address"
        },
        {
          "indexed": true,
          "internalType": "uint256",
          "name": "tokenId",
          "type": "uint256"
        },
        {
          "indexed": true,
          "internalType": "address",
          "name": "owner",
          "type": "address"
        }
      ],
      "name": "Itemcancelled",
      "type": "event"
    },
    {
      "anonymous": false,
      "inputs": [
        {
          "indexed": true,
          "internalType": "address",
          "name": "sender",
          "type": "address"
        },
        {
          "indexed": true,
          "internalType": "address",
          "name": "nftAddress",
          "type": "address"
        },
        {
          "indexed": true,
          "internalType": "uint256",
          "name": "tokenId",
          "type": "uint256"
        },
        {
          "indexed": false,
          "internalType": "uint256",
          "name": "price",
          "type": "uint256"
        }
      ],
      "name": "itemListed",
      "type": "event"
    },
    {
      "anonymous": false,
      "inputs": [
        {
          "indexed": true,
          "internalType": "address",
          "name": "nftAddress",
          "type": "address"
        },
        {
          "indexed": true,
          "internalType": "uint256",
          "name": "tokenId",
          "type": "uint256"
        },
        {
          "indexed": true,
          "internalType": "uint256",
          "name": "price",
          "type": "uint256"
        },
        {
          "indexed": false,
          "internalType": "address",
          "name": "seller",
          "type": "address"
        }
      ],
      "name": "updatedPrice",
      "type": "event"
    },
    {
      "stateMutability": "payable",
      "type": "fallback"
    },
    {
      "inputs": [],
      "name": "NFTcontractABI",
      "outputs": [
        {
          "internalType": "contract NFT",
          "name": "",
          "type": "address"
        }
      ],
      "stateMutability": "view",
      "type": "function"
    },
    {
      "inputs": [
        {
          "internalType": "address",
          "name": "nftAddress",
          "type": "address"
        },
        {
          "internalType": "uint256",
          "name": "tokenId",
          "type": "uint256"
        },
        {
          "internalType": "uint256",
          "name": "price",
          "type": "uint256"
        }
      ],
      "name": "addTtemToMarketplace",
      "outputs": [],
      "stateMutability": "nonpayable",
      "type": "function"
    },
    {
      "inputs": [
        {
          "internalType": "address",
          "name": "nftAddress",
          "type": "address"
        },
        {
          "internalType": "uint256",
          "name": "tokenId",
          "type": "uint256"
        }
      ],
      "name": "buy",
      "outputs": [],
      "stateMutability": "payable",
      "type": "function"
    },
    {
      "inputs": [
        {
          "internalType": "address",
          "name": "nftAddress",
          "type": "address"
        },
        {
          "internalType": "uint256",
          "name": "tokenId",
          "type": "uint256"
        }
      ],
      "name": "cancleListing",
      "outputs": [],
      "stateMutability": "nonpayable",
      "type": "function"
    },
    {
      "inputs": [],
      "name": "nftCount",
      "outputs": [
        {
          "internalType": "uint256",
          "name": "",
          "type": "uint256"
        }
      ],
      "stateMutability": "view",
      "type": "function"
    },
    {
      "inputs": [],
      "name": "sellerWithdraw",
      "outputs": [],
      "stateMutability": "payable",
      "type": "function"
    },
    {
      "inputs": [
        {
          "internalType": "address",
          "name": "nftAddress",
          "type": "address"
        },
        {
          "internalType": "uint256",
          "name": "tokenId",
          "type": "uint256"
        },
        {
          "internalType": "uint256",
          "name": "price",
          "type": "uint256"
        }
      ],
      "name": "updateNFTPrice",
      "outputs": [],
      "stateMutability": "nonpayable",
      "type": "function"
    },
    {
      "stateMutability": "payable",
      "type": "receive"
    }
  ],
  "bytecode": "0x6080604052600060045534801561001557600080fd5b506001600081905550611b2f8061002d6000396000f3fe6080604052600436106100745760003560e01c8063cce7ec131161004e578063cce7ec13146100db578063d9b9543a146100f7578063e2af603c14610122578063e66925a41461014b5761007b565b80630af2c6ca1461007d5780632bc268af146100a857806366af746b146100d15761007b565b3661007b57005b005b34801561008957600080fd5b50610092610174565b60405161009f919061178b565b60405180910390f35b3480156100b457600080fd5b506100cf60048036038101906100ca919061140b565b61017a565b005b6100d9610498565b005b6100f560048036038101906100f091906113cb565b6106ff565b005b34801561010357600080fd5b5061010c610b22565b6040516101199190611650565b60405180910390f35b34801561012e57600080fd5b506101496004803603810190610144919061140b565b610b48565b005b34801561015757600080fd5b50610172600480360381019061016d91906113cb565b611067565b005b60045481565b82826000600260008473ffffffffffffffffffffffffffffffffffffffff1673ffffffffffffffffffffffffffffffffffffffff16815260200190815260200160002060008381526020019081526020016000206000015411610212576040517f08c379a0000000000000000000000000000000000000000000000000000000008152600401610209906116eb565b60405180910390fd5b84843382600560006101000a81548173ffffffffffffffffffffffffffffffffffffffff021916908373ffffffffffffffffffffffffffffffffffffffff1602179055506000600560009054906101000a900473ffffffffffffffffffffffffffffffffffffffff1673ffffffffffffffffffffffffffffffffffffffff16636352211e846040518263ffffffff1660e01b81526004016102b3919061178b565b60206040518083038186803b1580156102cb57600080fd5b505afa1580156102df573d6000803e3d6000fd5b505050506040513d601f19601f82011682018060405250810190610303919061139e565b90508073ffffffffffffffffffffffffffffffffffffffff168273ffffffffffffffffffffffffffffffffffffffff1614610373576040517f08c379a000000000000000000000000000000000000000000000000000000000815260040161036a9061166b565b60405180910390fd5b6000600260008b73ffffffffffffffffffffffffffffffffffffffff1673ffffffffffffffffffffffffffffffffffffffff16815260200190815260200160002060008a8152602001908152602001600020604051806040016040529081600082015481526020016001820160009054906101000a900473ffffffffffffffffffffffffffffffffffffffff1673ffffffffffffffffffffffffffffffffffffffff1673ffffffffffffffffffffffffffffffffffffffff168152505090508781600001818152505087898b73ffffffffffffffffffffffffffffffffffffffff167f99f872d008b01f58e8b4f91a8be214bea11b76ba61c39f2f7cf8debdaea3f6523360405161048491906115fe565b60405180910390a450505050505050505050565b600260005414156104de576040517f08c379a00000000000000000000000000000000000000000000000000000000081526004016104d59061174b565b60405180910390fd5b6002600081905550600160003373ffffffffffffffffffffffffffffffffffffffff1673ffffffffffffffffffffffffffffffffffffffff16815260200190815260200160002060009054906101000a900460ff1661053c57600080fd5b6000600360003373ffffffffffffffffffffffffffffffffffffffff1673ffffffffffffffffffffffffffffffffffffffff16815260200190815260200160002054116105be576040517f08c379a00000000000000000000000000000000000000000000000000000000081526004016105b5906116cb565b60405180910390fd5b6000600360003373ffffffffffffffffffffffffffffffffffffffff1673ffffffffffffffffffffffffffffffffffffffff1681526020019081526020016000205490506000600360003373ffffffffffffffffffffffffffffffffffffffff1673ffffffffffffffffffffffffffffffffffffffff1681526020019081526020016000208190555060003373ffffffffffffffffffffffffffffffffffffffff168260405161066d906115e9565b60006040518083038185875af1925050503d80600081146106aa576040519150601f19603f3d011682016040523d82523d6000602084013e6106af565b606091505b50509050806106f3576040517f08c379a00000000000000000000000000000000000000000000000000000000081526004016106ea9061176b565b60405180910390fd5b50506001600081905550565b81816000600260008473ffffffffffffffffffffffffffffffffffffffff1673ffffffffffffffffffffffffffffffffffffffff16815260200190815260200160002060008381526020019081526020016000206000015411610797576040517f08c379a000000000000000000000000000000000000000000000000000000000815260040161078e906116eb565b60405180910390fd5b600260005414156107dd576040517f08c379a00000000000000000000000000000000000000000000000000000000081526004016107d49061174b565b60405180910390fd5b60026000819055506000600260008673ffffffffffffffffffffffffffffffffffffffff1673ffffffffffffffffffffffffffffffffffffffff1681526020019081526020016000206000858152602001908152602001600020604051806040016040529081600082015481526020016001820160009054906101000a900473ffffffffffffffffffffffffffffffffffffffff1673ffffffffffffffffffffffffffffffffffffffff1673ffffffffffffffffffffffffffffffffffffffff1681525050905080600001513410156108eb576040517f08c379a00000000000000000000000000000000000000000000000000000000081526004016108e29061172b565b60405180910390fd5b3460036000600260008973ffffffffffffffffffffffffffffffffffffffff1673ffffffffffffffffffffffffffffffffffffffff168152602001908152602001600020600088815260200190815260200160002060010160009054906101000a900473ffffffffffffffffffffffffffffffffffffffff1673ffffffffffffffffffffffffffffffffffffffff1673ffffffffffffffffffffffffffffffffffffffff16815260200190815260200160002060008282546109ad91906117c2565b925050819055508473ffffffffffffffffffffffffffffffffffffffff166342842e0e826020015133876040518463ffffffff1660e01b81526004016109f593929190611619565b600060405180830381600087803b158015610a0f57600080fd5b505af1158015610a23573d6000803e3d6000fd5b50505050600260008673ffffffffffffffffffffffffffffffffffffffff1673ffffffffffffffffffffffffffffffffffffffff16815260200190815260200160002060008581526020019081526020016000206000808201600090556001820160006101000a81549073ffffffffffffffffffffffffffffffffffffffff02191690555050838573ffffffffffffffffffffffffffffffffffffffff163373ffffffffffffffffffffffffffffffffffffffff167f263223b1dd81e51054a4e6f791d45a4a1ddb4aadcd93a2dfd892615c3fdac1878460000151604051610b0b919061178b565b60405180910390a450600160008190555050505050565b600560009054906101000a900473ffffffffffffffffffffffffffffffffffffffff1681565b82826000600260008473ffffffffffffffffffffffffffffffffffffffff1673ffffffffffffffffffffffffffffffffffffffff1681526020019081526020016000206000838152602001908152602001600020600001541115610be1576040517f08c379a0000000000000000000000000000000000000000000000000000000008152600401610bd89061168b565b60405180910390fd5b84843382600560006101000a81548173ffffffffffffffffffffffffffffffffffffffff021916908373ffffffffffffffffffffffffffffffffffffffff1602179055506000600560009054906101000a900473ffffffffffffffffffffffffffffffffffffffff1673ffffffffffffffffffffffffffffffffffffffff16636352211e846040518263ffffffff1660e01b8152600401610c82919061178b565b60206040518083038186803b158015610c9a57600080fd5b505afa158015610cae573d6000803e3d6000fd5b505050506040513d601f19601f82011682018060405250810190610cd2919061139e565b90508073ffffffffffffffffffffffffffffffffffffffff168273ffffffffffffffffffffffffffffffffffffffff1614610d42576040517f08c379a0000000000000000000000000000000000000000000000000000000008152600401610d399061166b565b60405180910390fd5b60008711610d85576040517f08c379a0000000000000000000000000000000000000000000000000000000008152600401610d7c906116ab565b60405180910390fd5b3073ffffffffffffffffffffffffffffffffffffffff16600560009054906101000a900473ffffffffffffffffffffffffffffffffffffffff1673ffffffffffffffffffffffffffffffffffffffff1663081812fc8a6040518263ffffffff1660e01b8152600401610df7919061178b565b60206040518083038186803b158015610e0f57600080fd5b505afa158015610e23573d6000803e3d6000fd5b505050506040513d601f19601f82011682018060405250810190610e47919061139e565b73ffffffffffffffffffffffffffffffffffffffff1614610e9d576040517f08c379a0000000000000000000000000000000000000000000000000000000008152600401610e949061170b565b60405180910390fd5b86600260008b73ffffffffffffffffffffffffffffffffffffffff1673ffffffffffffffffffffffffffffffffffffffff16815260200190815260200160002060008a81526020019081526020016000206000018190555033600260008b73ffffffffffffffffffffffffffffffffffffffff1673ffffffffffffffffffffffffffffffffffffffff16815260200190815260200160002060008a815260200190815260200160002060010160006101000a81548173ffffffffffffffffffffffffffffffffffffffff021916908373ffffffffffffffffffffffffffffffffffffffff16021790555060018060003373ffffffffffffffffffffffffffffffffffffffff1673ffffffffffffffffffffffffffffffffffffffff16815260200190815260200160002060006101000a81548160ff02191690831515021790555060046000815480929190610ff1906118b4565b9190505550878973ffffffffffffffffffffffffffffffffffffffff163373ffffffffffffffffffffffffffffffffffffffff167f9c6dfa5625407c4edd0ed0f699daa1eead567ca67ff49c153034999b20445d298a604051611054919061178b565b60405180910390a4505050505050505050565b81816000600260008473ffffffffffffffffffffffffffffffffffffffff1673ffffffffffffffffffffffffffffffffffffffff168152602001908152602001600020600083815260200190815260200160002060000154116110ff576040517f08c379a00000000000000000000000000000000000000000000000000000000081526004016110f6906116eb565b60405180910390fd5b83833382600560006101000a81548173ffffffffffffffffffffffffffffffffffffffff021916908373ffffffffffffffffffffffffffffffffffffffff1602179055506000600560009054906101000a900473ffffffffffffffffffffffffffffffffffffffff1673ffffffffffffffffffffffffffffffffffffffff16636352211e846040518263ffffffff1660e01b81526004016111a0919061178b565b60206040518083038186803b1580156111b857600080fd5b505afa1580156111cc573d6000803e3d6000fd5b505050506040513d601f19601f820116820180604052508101906111f0919061139e565b90508073ffffffffffffffffffffffffffffffffffffffff168273ffffffffffffffffffffffffffffffffffffffff1614611260576040517f08c379a00000000000000000000000000000000000000000000000000000000081526004016112579061166b565b60405180910390fd5b600260008973ffffffffffffffffffffffffffffffffffffffff1673ffffffffffffffffffffffffffffffffffffffff16815260200190815260200160002060008881526020019081526020016000206000808201600090556001820160006101000a81549073ffffffffffffffffffffffffffffffffffffffff02191690555050600460008154809291906112f59061188a565b91905055503373ffffffffffffffffffffffffffffffffffffffff16878973ffffffffffffffffffffffffffffffffffffffff167f8d6702f5b63ded964ae3c43a5a5e5213eeb1999c05651bcb3d5f7f21dce1e95d60405160405180910390a45050505050505050565b60008135905061136e81611acb565b92915050565b60008151905061138381611acb565b92915050565b60008135905061139881611ae2565b92915050565b6000602082840312156113b4576113b361192c565b5b60006113c284828501611374565b91505092915050565b600080604083850312156113e2576113e161192c565b5b60006113f08582860161135f565b925050602061140185828601611389565b9150509250929050565b6000806000606084860312156114245761142361192c565b5b60006114328682870161135f565b935050602061144386828701611389565b925050604061145486828701611389565b9150509250925092565b61146781611818565b82525050565b61147681611854565b82525050565b60006114896014836117b1565b915061149482611931565b602082019050919050565b60006114ac6016836117b1565b91506114b78261195a565b602082019050919050565b60006114cf601c836117b1565b91506114da82611983565b602082019050919050565b60006114f26019836117b1565b91506114fd826119ac565b602082019050919050565b6000611515602b836117b1565b9150611520826119d5565b604082019050919050565b60006115386000836117a6565b915061154382611a24565b600082019050919050565b600061155b6015836117b1565b915061156682611a27565b602082019050919050565b600061157e6013836117b1565b915061158982611a50565b602082019050919050565b60006115a1601f836117b1565b91506115ac82611a79565b602082019050919050565b60006115c4600f836117b1565b91506115cf82611aa2565b602082019050919050565b6115e38161184a565b82525050565b60006115f48261152b565b9150819050919050565b6000602082019050611613600083018461145e565b92915050565b600060608201905061162e600083018661145e565b61163b602083018561145e565b61164860408301846115da565b949350505050565b6000602082019050611665600083018461146d565b92915050565b600060208201905081810360008301526116848161147c565b9050919050565b600060208201905081810360008301526116a48161149f565b9050919050565b600060208201905081810360008301526116c4816114c2565b9050919050565b600060208201905081810360008301526116e4816114e5565b9050919050565b6000602082019050818103600083015261170481611508565b9050919050565b600060208201905081810360008301526117248161154e565b9050919050565b6000602082019050818103600083015261174481611571565b9050919050565b6000602082019050818103600083015261176481611594565b9050919050565b60006020820190508181036000830152611784816115b7565b9050919050565b60006020820190506117a060008301846115da565b92915050565b600081905092915050565b600082825260208201905092915050565b60006117cd8261184a565b91506117d88361184a565b9250827fffffffffffffffffffffffffffffffffffffffffffffffffffffffffffffffff0382111561180d5761180c6118fd565b5b828201905092915050565b60006118238261182a565b9050919050565b600073ffffffffffffffffffffffffffffffffffffffff82169050919050565b6000819050919050565b600061185f82611866565b9050919050565b600061187182611878565b9050919050565b60006118838261182a565b9050919050565b60006118958261184a565b915060008214156118a9576118a86118fd565b5b600182039050919050565b60006118bf8261184a565b91507fffffffffffffffffffffffffffffffffffffffffffffffffffffffffffffffff8214156118f2576118f16118fd565b5b600182019050919050565b7f4e487b7100000000000000000000000000000000000000000000000000000000600052601160045260246000fd5b600080fd5b7f6e6f7420746865206f776e6572206f66204e4654000000000000000000000000600082015250565b7f616c6561726479206c697374656420746865204e465400000000000000000000600082015250565b7f7072696365206d7573742062652067726561746572207468616e203000000000600082015250565b7f302062616c616e636520696e2074686520636f6e747261637400000000000000600082015250565b7f7572206e6f74206c6973746564206d656d62657220696e20746865204e46542060008201527f6d61726b6574706c616365000000000000000000000000000000000000000000602082015250565b50565b7f6f70657261746f72206e6f7420617070726f7665640000000000000000000000600082015250565b7f6c65737320707269636520706179616d656e7400000000000000000000000000600082015250565b7f5265656e7472616e637947756172643a207265656e7472616e742063616c6c00600082015250565b7f7769746864726177206661696c65640000000000000000000000000000000000600082015250565b611ad481611818565b8114611adf57600080fd5b50565b611aeb8161184a565b8114611af657600080fd5b5056fea2646970667358221220861f997f4de11f6e509228791b63566f552873b74e29f9acd2838f10e885cc5664736f6c63430008070033",
  "linkReferences": {},
  "deployedLinkReferences": {}
}