{
  "contracts/storage.sol": {
    "A": {
      "abi": [
        {
          "inputs": [
            {
              "internalType": "uint256",
              "name": "value",
              "type": "uint256"
            }
          ],
          "name": "addElements",
          "outputs": [],
          "stateMutability": "nonpayable",
          "type": "function"
        }
      ],
      "evm": {
        "bytecode": {
          "linkReferences": {},
          "object": "6080604052600a600055601460015534801561001a57600080fd5b506101058061002a6000396000f3fe6080604052348015600f57600080fd5b506004361060285760003560e01c80636bf4419514602d575b600080fd5b60436004803603810190603f91906084565b6045565b005b600281908060018154018082558091505060019003906000526020600020016000909190919091505550565b600081359050607e8160bb565b92915050565b600060208284031215609757609660b6565b5b600060a3848285016071565b91505092915050565b6000819050919050565b600080fd5b60c28160ac565b811460cc57600080fd5b5056fea2646970667358221220b258565085ab0377d1ea1802f1c9cd287d99827c64c2d90d51e02cf75b10705f64736f6c63430008070033",
          "opcodes": "PUSH1 0x80 PUSH1 0x40 MSTORE PUSH1 0xA PUSH1 0x0 SSTORE PUSH1 0x14 PUSH1 0x1 SSTORE CALLVALUE DUP1 ISZERO PUSH2 0x1A JUMPI PUSH1 0x0 DUP1 REVERT JUMPDEST POP PUSH2 0x105 DUP1 PUSH2 0x2A PUSH1 0x0 CODECOPY PUSH1 0x0 RETURN INVALID PUSH1 0x80 PUSH1 0x40 MSTORE CALLVALUE DUP1 ISZERO PUSH1 0xF JUMPI PUSH1 0x0 DUP1 REVERT JUMPDEST POP PUSH1 0x4 CALLDATASIZE LT PUSH1 0x28 JUMPI PUSH1 0x0 CALLDATALOAD PUSH1 0xE0 SHR DUP1 PUSH4 0x6BF44195 EQ PUSH1 0x2D JUMPI JUMPDEST PUSH1 0x0 DUP1 REVERT JUMPDEST PUSH1 0x43 PUSH1 0x4 DUP1 CALLDATASIZE SUB DUP2 ADD SWAP1 PUSH1 0x3F SWAP2 SWAP1 PUSH1 0x84 JUMP JUMPDEST PUSH1 0x45 JUMP JUMPDEST STOP JUMPDEST PUSH1 0x2 DUP2 SWAP1 DUP1 PUSH1 0x1 DUP2 SLOAD ADD DUP1 DUP3 SSTORE DUP1 SWAP2 POP POP PUSH1 0x1 SWAP1 SUB SWAP1 PUSH1 0x0 MSTORE PUSH1 0x20 PUSH1 0x0 KECCAK256 ADD PUSH1 0x0 SWAP1 SWAP2 SWAP1 SWAP2 SWAP1 SWAP2 POP SSTORE POP JUMP JUMPDEST PUSH1 0x0 DUP2 CALLDATALOAD SWAP1 POP PUSH1 0x7E DUP2 PUSH1 0xBB JUMP JUMPDEST SWAP3 SWAP2 POP POP JUMP JUMPDEST PUSH1 0x0 PUSH1 0x20 DUP3 DUP5 SUB SLT ISZERO PUSH1 0x97 JUMPI PUSH1 0x96 PUSH1 0xB6 JUMP JUMPDEST JUMPDEST PUSH1 0x0 PUSH1 0xA3 DUP5 DUP3 DUP6 ADD PUSH1 0x71 JUMP JUMPDEST SWAP2 POP POP SWAP3 SWAP2 POP POP JUMP JUMPDEST PUSH1 0x0 DUP2 SWAP1 POP SWAP2 SWAP1 POP JUMP JUMPDEST PUSH1 0x0 DUP1 REVERT JUMPDEST PUSH1 0xC2 DUP2 PUSH1 0xAC JUMP JUMPDEST DUP2 EQ PUSH1 0xCC JUMPI PUSH1 0x0 DUP1 REVERT JUMPDEST POP JUMP INVALID LOG2 PUSH5 0x6970667358 0x22 SLT KECCAK256 0xB2 PC JUMP POP DUP6 0xAB SUB PUSH24 0xD1EA1802F1C9CD287D99827C64C2D90D51E02CF75B10705F PUSH5 0x736F6C6343 STOP ADDMOD SMOD STOP CALLER "
        },
        "methodIdentifiers": {
          "addElements(uint256)": "6bf44195"
        }
      }
    }
  }
}