{
  "_format": "hh-sol-artifact-1",
  "contractName": "NFT",
  "sourceName": "contracts/NFTcontract.sol",
  "abi": [
    {
      "inputs": [
        {
          "internalType": "string",
          "name": "_baseURI",
          "type": "string"
        }
      ],
      "stateMutability": "nonpayable",
      "type": "constructor"
    },
    {
      "anonymous": false,
      "inputs": [
        {
          "indexed": true,
          "internalType": "address",
          "name": "owner",
          "type": "address"
        },
        {
          "indexed": true,
          "internalType": "address",
          "name": "approved",
          "type": "address"
        },
        {
          "indexed": true,
          "internalType": "uint256",
          "name": "tokenId",
          "type": "uint256"
        }
      ],
      "name": "Approval",
      "type": "event"
    },
    {
      "anonymous": false,
      "inputs": [
        {
          "indexed": true,
          "internalType": "address",
          "name": "owner",
          "type": "address"
        },
        {
          "indexed": true,
          "internalType": "address",
          "name": "operator",
          "type": "address"
        },
        {
          "indexed": false,
          "internalType": "bool",
          "name": "approved",
          "type": "bool"
        }
      ],
      "name": "ApprovalForAll",
      "type": "event"
    },
    {
      "anonymous": false,
      "inputs": [
        {
          "indexed": true,
          "internalType": "address",
          "name": "from",
          "type": "address"
        },
        {
          "indexed": true,
          "internalType": "address",
          "name": "to",
          "type": "address"
        },
        {
          "indexed": true,
          "internalType": "uint256",
          "name": "tokenId",
          "type": "uint256"
        }
      ],
      "name": "Transfer",
      "type": "event"
    },
    {
      "anonymous": false,
      "inputs": [
        {
          "indexed": true,
          "internalType": "uint256",
          "name": "tokenId",
          "type": "uint256"
        }
      ],
      "name": "mintedNFT",
      "type": "event"
    },
    {
      "inputs": [
        {
          "internalType": "address",
          "name": "to",
          "type": "address"
        },
        {
          "internalType": "uint256",
          "name": "tokenId",
          "type": "uint256"
        }
      ],
      "name": "approve",
      "outputs": [],
      "stateMutability": "nonpayable",
      "type": "function"
    },
    {
      "inputs": [
        {
          "internalType": "address",
          "name": "owner",
          "type": "address"
        }
      ],
      "name": "balanceOf",
      "outputs": [
        {
          "internalType": "uint256",
          "name": "",
          "type": "uint256"
        }
      ],
      "stateMutability": "view",
      "type": "function"
    },
    {
      "inputs": [],
      "name": "baseURI",
      "outputs": [
        {
          "internalType": "string",
          "name": "",
          "type": "string"
        }
      ],
      "stateMutability": "view",
      "type": "function"
    },
    {
      "inputs": [
        {
          "internalType": "uint256",
          "name": "tokenId",
          "type": "uint256"
        }
      ],
      "name": "getApproved",
      "outputs": [
        {
          "internalType": "address",
          "name": "",
          "type": "address"
        }
      ],
      "stateMutability": "view",
      "type": "function"
    },
    {
      "inputs": [
        {
          "internalType": "address",
          "name": "owner",
          "type": "address"
        },
        {
          "internalType": "address",
          "name": "operator",
          "type": "address"
        }
      ],
      "name": "isApprovedForAll",
      "outputs": [
        {
          "internalType": "bool",
          "name": "",
          "type": "bool"
        }
      ],
      "stateMutability": "view",
      "type": "function"
    },
    {
      "inputs": [],
      "name": "maxTokenIds",
      "outputs": [
        {
          "internalType": "uint256",
          "name": "",
          "type": "uint256"
        }
      ],
      "stateMutability": "view",
      "type": "function"
    },
    {
      "inputs": [],
      "name": "mintNFT",
      "outputs": [],
      "stateMutability": "nonpayable",
      "type": "function"
    },
    {
      "inputs": [],
      "name": "name",
      "outputs": [
        {
          "internalType": "string",
          "name": "",
          "type": "string"
        }
      ],
      "stateMutability": "view",
      "type": "function"
    },
    {
      "inputs": [
        {
          "internalType": "uint256",
          "name": "tokenId",
          "type": "uint256"
        }
      ],
      "name": "ownerOf",
      "outputs": [
        {
          "internalType": "address",
          "name": "",
          "type": "address"
        }
      ],
      "stateMutability": "view",
      "type": "function"
    },
    {
      "inputs": [
        {
          "internalType": "address",
          "name": "from",
          "type": "address"
        },
        {
          "internalType": "address",
          "name": "to",
          "type": "address"
        },
        {
          "internalType": "uint256",
          "name": "tokenId",
          "type": "uint256"
        }
      ],
      "name": "safeTransferFrom",
      "outputs": [],
      "stateMutability": "nonpayable",
      "type": "function"
    },
    {
      "inputs": [
        {
          "internalType": "address",
          "name": "from",
          "type": "address"
        },
        {
          "internalType": "address",
          "name": "to",
          "type": "address"
        },
        {
          "internalType": "uint256",
          "name": "tokenId",
          "type": "uint256"
        },
        {
          "internalType": "bytes",
          "name": "data",
          "type": "bytes"
        }
      ],
      "name": "safeTransferFrom",
      "outputs": [],
      "stateMutability": "nonpayable",
      "type": "function"
    },
    {
      "inputs": [
        {
          "internalType": "address",
          "name": "operator",
          "type": "address"
        },
        {
          "internalType": "bool",
          "name": "approved",
          "type": "bool"
        }
      ],
      "name": "setApprovalForAll",
      "outputs": [],
      "stateMutability": "nonpayable",
      "type": "function"
    },
    {
      "inputs": [
        {
          "internalType": "bytes4",
          "name": "interfaceId",
          "type": "bytes4"
        }
      ],
      "name": "supportsInterface",
      "outputs": [
        {
          "internalType": "bool",
          "name": "",
          "type": "bool"
        }
      ],
      "stateMutability": "view",
      "type": "function"
    },
    {
      "inputs": [],
      "name": "symbol",
      "outputs": [
        {
          "internalType": "string",
          "name": "",
          "type": "string"
        }
      ],
      "stateMutability": "view",
      "type": "function"
    },
    {
      "inputs": [],
      "name": "tokenCount",
      "outputs": [
        {
          "internalType": "uint256",
          "name": "",
          "type": "uint256"
        }
      ],
      "stateMutability": "view",
      "type": "function"
    },
    {
      "inputs": [
        {
          "internalType": "uint256",
          "name": "tokenId",
          "type": "uint256"
        }
      ],
      "name": "tokenURI",
      "outputs": [
        {
          "internalType": "string",
          "name": "",
          "type": "string"
        }
      ],
      "stateMutability": "view",
      "type": "function"
    },
    {
      "inputs": [
        {
          "internalType": "address",
          "name": "from",
          "type": "address"
        },
        {
          "internalType": "address",
          "name": "to",
          "type": "address"
        },
        {
          "internalType": "uint256",
          "name": "tokenId",
          "type": "uint256"
        }
      ],
      "name": "transferFrom",
      "outputs": [],
      "stateMutability": "nonpayable",
      "type": "function"
    }
  ],
  "bytecode": "0x6080604052600a6008553480156200001657600080fd5b5060405162002c4938038062002c4983398181016040528101906200003c919062000232565b6040518060400160405280600e81526020017f4e46544d61726b6574506c6163650000000000000000000000000000000000008152506040518060400160405280600281526020017f4d500000000000000000000000000000000000000000000000000000000000008152508160009080519060200190620000c092919062000104565b508060019080519060200190620000d992919062000104565b5050508060069080519060200190620000f492919062000104565b5060006007819055505062000407565b828054620001129062000318565b90600052602060002090601f01602090048101928262000136576000855562000182565b82601f106200015157805160ff191683800117855562000182565b8280016001018555821562000182579182015b828111156200018157825182559160200191906001019062000164565b5b50905062000191919062000195565b5090565b5b80821115620001b057600081600090555060010162000196565b5090565b6000620001cb620001c584620002ac565b62000283565b905082815260208101848484011115620001ea57620001e9620003e7565b5b620001f7848285620002e2565b509392505050565b600082601f830112620002175762000216620003e2565b5b815162000229848260208601620001b4565b91505092915050565b6000602082840312156200024b576200024a620003f1565b5b600082015167ffffffffffffffff8111156200026c576200026b620003ec565b5b6200027a84828501620001ff565b91505092915050565b60006200028f620002a2565b90506200029d82826200034e565b919050565b6000604051905090565b600067ffffffffffffffff821115620002ca57620002c9620003b3565b5b620002d582620003f6565b9050602081019050919050565b60005b8381101562000302578082015181840152602081019050620002e5565b8381111562000312576000848401525b50505050565b600060028204905060018216806200033157607f821691505b6020821081141562000348576200034762000384565b5b50919050565b6200035982620003f6565b810181811067ffffffffffffffff821117156200037b576200037a620003b3565b5b80604052505050565b7f4e487b7100000000000000000000000000000000000000000000000000000000600052602260045260246000fd5b7f4e487b7100000000000000000000000000000000000000000000000000000000600052604160045260246000fd5b600080fd5b600080fd5b600080fd5b600080fd5b6000601f19601f8301169050919050565b61283280620004176000396000f3fe608060405234801561001057600080fd5b506004361061010b5760003560e01c80636352211e116100a25780639f181b5e116100715780639f181b5e146102a6578063a22cb465146102c4578063b88d4fde146102e0578063c87b56dd146102fc578063e985e9c51461032c5761010b565b80636352211e1461020a5780636c0360eb1461023a57806370a082311461025857806395d89b41146102885761010b565b806314f710fe116100de57806314f710fe146101aa57806323b872dd146101b457806342842e0e146101d05780635f769621146101ec5761010b565b806301ffc9a71461011057806306fdde0314610140578063081812fc1461015e578063095ea7b31461018e575b600080fd5b61012a600480360381019061012591906119d8565b61035c565b6040516101379190611e2e565b60405180910390f35b61014861043e565b6040516101559190611e49565b60405180910390f35b61017860048036038101906101739190611a32565b6104d0565b6040516101859190611dc7565b60405180910390f35b6101a860048036038101906101a39190611998565b610516565b005b6101b261062e565b005b6101ce60048036038101906101c99190611882565b6106cc565b005b6101ea60048036038101906101e59190611882565b61072c565b005b6101f461074c565b604051610201919061200b565b60405180910390f35b610224600480360381019061021f9190611a32565b610752565b6040516102319190611dc7565b60405180910390f35b610242610804565b60405161024f9190611e49565b60405180910390f35b610272600480360381019061026d9190611815565b610892565b60405161027f919061200b565b60405180910390f35b61029061094a565b60405161029d9190611e49565b60405180910390f35b6102ae6109dc565b6040516102bb919061200b565b60405180910390f35b6102de60048036038101906102d99190611958565b6109e2565b005b6102fa60048036038101906102f591906118d5565b6109f8565b005b61031660048036038101906103119190611a32565b610a5a565b6040516103239190611e49565b60405180910390f35b61034660048036038101906103419190611842565b610b02565b6040516103539190611e2e565b60405180910390f35b60007f80ac58cd000000000000000000000000000000000000000000000000000000007bffffffffffffffffffffffffffffffffffffffffffffffffffffffff1916827bffffffffffffffffffffffffffffffffffffffffffffffffffffffff1916148061042757507f5b5e139f000000000000000000000000000000000000000000000000000000007bffffffffffffffffffffffffffffffffffffffffffffffffffffffff1916827bffffffffffffffffffffffffffffffffffffffffffffffffffffffff1916145b80610437575061043682610b96565b5b9050919050565b60606000805461044d90612245565b80601f016020809104026020016040519081016040528092919081815260200182805461047990612245565b80156104c65780601f1061049b576101008083540402835291602001916104c6565b820191906000526020600020905b8154815290600101906020018083116104a957829003601f168201915b5050505050905090565b60006104db82610c00565b6004600083815260200190815260200160002060009054906101000a900473ffffffffffffffffffffffffffffffffffffffff169050919050565b600061052182610752565b90508073ffffffffffffffffffffffffffffffffffffffff168373ffffffffffffffffffffffffffffffffffffffff161415610592576040517f08c379a000000000000000000000000000000000000000000000000000000000815260040161058990611fcb565b60405180910390fd5b8073ffffffffffffffffffffffffffffffffffffffff166105b1610c4b565b73ffffffffffffffffffffffffffffffffffffffff1614806105e057506105df816105da610c4b565b610b02565b5b61061f576040517f08c379a000000000000000000000000000000000000000000000000000000000815260040161061690611f4b565b60405180910390fd5b6106298383610c53565b505050565b6008546007541115610675576040517f08c379a000000000000000000000000000000000000000000000000000000000815260040161066c90611f0b565b60405180910390fd5b60016007600082825461068891906120d4565b9250508190555061069b33600754610d0c565b6007547f7b1e175a66d182a3654e9e023c8cb61651d12aae75ef78684294f6f281f6726960405160405180910390a2565b6106dd6106d7610c4b565b82610ee6565b61071c576040517f08c379a000000000000000000000000000000000000000000000000000000000815260040161071390611feb565b60405180910390fd5b610727838383610f7b565b505050565b610747838383604051806020016040528060008152506109f8565b505050565b60085481565b6000806002600084815260200190815260200160002060009054906101000a900473ffffffffffffffffffffffffffffffffffffffff169050600073ffffffffffffffffffffffffffffffffffffffff168173ffffffffffffffffffffffffffffffffffffffff1614156107fb576040517f08c379a00000000000000000000000000000000000000000000000000000000081526004016107f290611fab565b60405180910390fd5b80915050919050565b6006805461081190612245565b80601f016020809104026020016040519081016040528092919081815260200182805461083d90612245565b801561088a5780601f1061085f5761010080835404028352916020019161088a565b820191906000526020600020905b81548152906001019060200180831161086d57829003601f168201915b505050505081565b60008073ffffffffffffffffffffffffffffffffffffffff168273ffffffffffffffffffffffffffffffffffffffff161415610903576040517f08c379a00000000000000000000000000000000000000000000000000000000081526004016108fa90611f2b565b60405180910390fd5b600360008373ffffffffffffffffffffffffffffffffffffffff1673ffffffffffffffffffffffffffffffffffffffff168152602001908152602001600020549050919050565b60606001805461095990612245565b80601f016020809104026020016040519081016040528092919081815260200182805461098590612245565b80156109d25780601f106109a7576101008083540402835291602001916109d2565b820191906000526020600020905b8154815290600101906020018083116109b557829003601f168201915b5050505050905090565b60075481565b6109f46109ed610c4b565b83836111e2565b5050565b610a09610a03610c4b565b83610ee6565b610a48576040517f08c379a0000000000000000000000000000000000000000000000000000000008152600401610a3f90611feb565b60405180910390fd5b610a548484848461134f565b50505050565b6060610a65826113ab565b610aa4576040517f08c379a0000000000000000000000000000000000000000000000000000000008152600401610a9b90611f8b565b60405180910390fd5b600060068054610ab390612245565b905011610acf5760405180602001604052806000815250610afb565b6006610ada83611417565b604051602001610aeb929190611d98565b6040516020818303038152906040525b9050919050565b6000600560008473ffffffffffffffffffffffffffffffffffffffff1673ffffffffffffffffffffffffffffffffffffffff16815260200190815260200160002060008373ffffffffffffffffffffffffffffffffffffffff1673ffffffffffffffffffffffffffffffffffffffff16815260200190815260200160002060009054906101000a900460ff16905092915050565b60007f01ffc9a7000000000000000000000000000000000000000000000000000000007bffffffffffffffffffffffffffffffffffffffffffffffffffffffff1916827bffffffffffffffffffffffffffffffffffffffffffffffffffffffff1916149050919050565b610c09816113ab565b610c48576040517f08c379a0000000000000000000000000000000000000000000000000000000008152600401610c3f90611fab565b60405180910390fd5b50565b600033905090565b816004600083815260200190815260200160002060006101000a81548173ffffffffffffffffffffffffffffffffffffffff021916908373ffffffffffffffffffffffffffffffffffffffff160217905550808273ffffffffffffffffffffffffffffffffffffffff16610cc683610752565b73ffffffffffffffffffffffffffffffffffffffff167f8c5be1e5ebec7d5bd14f71427d1e84f3dd0314c0f7b2291e5b200ac8c7c3b92560405160405180910390a45050565b600073ffffffffffffffffffffffffffffffffffffffff168273ffffffffffffffffffffffffffffffffffffffff161415610d7c576040517f08c379a0000000000000000000000000000000000000000000000000000000008152600401610d7390611f6b565b60405180910390fd5b610d85816113ab565b15610dc5576040517f08c379a0000000000000000000000000000000000000000000000000000000008152600401610dbc90611eab565b60405180910390fd5b610dd160008383611578565b6001600360008473ffffffffffffffffffffffffffffffffffffffff1673ffffffffffffffffffffffffffffffffffffffff1681526020019081526020016000206000828254610e2191906120d4565b92505081905550816002600083815260200190815260200160002060006101000a81548173ffffffffffffffffffffffffffffffffffffffff021916908373ffffffffffffffffffffffffffffffffffffffff160217905550808273ffffffffffffffffffffffffffffffffffffffff16600073ffffffffffffffffffffffffffffffffffffffff167fddf252ad1be2c89b69c2b068fc378daa952ba7f163c4a11628f55a4df523b3ef60405160405180910390a4610ee26000838361157d565b5050565b600080610ef283610752565b90508073ffffffffffffffffffffffffffffffffffffffff168473ffffffffffffffffffffffffffffffffffffffff161480610f345750610f338185610b02565b5b80610f7257508373ffffffffffffffffffffffffffffffffffffffff16610f5a846104d0565b73ffffffffffffffffffffffffffffffffffffffff16145b91505092915050565b8273ffffffffffffffffffffffffffffffffffffffff16610f9b82610752565b73ffffffffffffffffffffffffffffffffffffffff1614610ff1576040517f08c379a0000000000000000000000000000000000000000000000000000000008152600401610fe890611e8b565b60405180910390fd5b600073ffffffffffffffffffffffffffffffffffffffff168273ffffffffffffffffffffffffffffffffffffffff161415611061576040517f08c379a000000000000000000000000000000000000000000000000000000000815260040161105890611ecb565b60405180910390fd5b61106c838383611578565b611077600082610c53565b6001600360008573ffffffffffffffffffffffffffffffffffffffff1673ffffffffffffffffffffffffffffffffffffffff16815260200190815260200160002060008282546110c7919061215b565b925050819055506001600360008473ffffffffffffffffffffffffffffffffffffffff1673ffffffffffffffffffffffffffffffffffffffff168152602001908152602001600020600082825461111e91906120d4565b92505081905550816002600083815260200190815260200160002060006101000a81548173ffffffffffffffffffffffffffffffffffffffff021916908373ffffffffffffffffffffffffffffffffffffffff160217905550808273ffffffffffffffffffffffffffffffffffffffff168473ffffffffffffffffffffffffffffffffffffffff167fddf252ad1be2c89b69c2b068fc378daa952ba7f163c4a11628f55a4df523b3ef60405160405180910390a46111dd83838361157d565b505050565b8173ffffffffffffffffffffffffffffffffffffffff168373ffffffffffffffffffffffffffffffffffffffff161415611251576040517f08c379a000000000000000000000000000000000000000000000000000000000815260040161124890611eeb565b60405180910390fd5b80600560008573ffffffffffffffffffffffffffffffffffffffff1673ffffffffffffffffffffffffffffffffffffffff16815260200190815260200160002060008473ffffffffffffffffffffffffffffffffffffffff1673ffffffffffffffffffffffffffffffffffffffff16815260200190815260200160002060006101000a81548160ff0219169083151502179055508173ffffffffffffffffffffffffffffffffffffffff168373ffffffffffffffffffffffffffffffffffffffff167f17307eab39ab6107e8899845ad3d59bd9653f200f220920489ca2b5937696c31836040516113429190611e2e565b60405180910390a3505050565b61135a848484610f7b565b61136684848484611582565b6113a5576040517f08c379a000000000000000000000000000000000000000000000000000000000815260040161139c90611e6b565b60405180910390fd5b50505050565b60008073ffffffffffffffffffffffffffffffffffffffff166002600084815260200190815260200160002060009054906101000a900473ffffffffffffffffffffffffffffffffffffffff1673ffffffffffffffffffffffffffffffffffffffff1614159050919050565b6060600082141561145f576040518060400160405280600181526020017f30000000000000000000000000000000000000000000000000000000000000008152509050611573565b600082905060005b6000821461149157808061147a906122a8565b915050600a8261148a919061212a565b9150611467565b60008167ffffffffffffffff8111156114ad576114ac6123de565b5b6040519080825280601f01601f1916602001820160405280156114df5781602001600182028036833780820191505090505b5090505b6000851461156c576001826114f8919061215b565b9150600a8561150791906122f1565b603061151391906120d4565b60f81b818381518110611529576115286123af565b5b60200101907effffffffffffffffffffffffffffffffffffffffffffffffffffffffffffff1916908160001a905350600a85611565919061212a565b94506114e3565b8093505050505b919050565b505050565b505050565b60006115a38473ffffffffffffffffffffffffffffffffffffffff16611719565b1561170c578373ffffffffffffffffffffffffffffffffffffffff1663150b7a026115cc610c4b565b8786866040518563ffffffff1660e01b81526004016115ee9493929190611de2565b602060405180830381600087803b15801561160857600080fd5b505af192505050801561163957506040513d601f19601f820116820180604052508101906116369190611a05565b60015b6116bc573d8060008114611669576040519150601f19603f3d011682016040523d82523d6000602084013e61166e565b606091505b506000815114156116b4576040517f08c379a00000000000000000000000000000000000000000000000000000000081526004016116ab90611e6b565b60405180910390fd5b805181602001fd5b63150b7a0260e01b7bffffffffffffffffffffffffffffffffffffffffffffffffffffffff1916817bffffffffffffffffffffffffffffffffffffffffffffffffffffffff191614915050611711565b600190505b949350505050565b6000808273ffffffffffffffffffffffffffffffffffffffff163b119050919050565b600061174f61174a8461204b565b612026565b90508281526020810184848401111561176b5761176a612412565b5b611776848285612203565b509392505050565b60008135905061178d816127a0565b92915050565b6000813590506117a2816127b7565b92915050565b6000813590506117b7816127ce565b92915050565b6000815190506117cc816127ce565b92915050565b600082601f8301126117e7576117e661240d565b5b81356117f784826020860161173c565b91505092915050565b60008135905061180f816127e5565b92915050565b60006020828403121561182b5761182a61241c565b5b60006118398482850161177e565b91505092915050565b600080604083850312156118595761185861241c565b5b60006118678582860161177e565b92505060206118788582860161177e565b9150509250929050565b60008060006060848603121561189b5761189a61241c565b5b60006118a98682870161177e565b93505060206118ba8682870161177e565b92505060406118cb86828701611800565b9150509250925092565b600080600080608085870312156118ef576118ee61241c565b5b60006118fd8782880161177e565b945050602061190e8782880161177e565b935050604061191f87828801611800565b925050606085013567ffffffffffffffff8111156119405761193f612417565b5b61194c878288016117d2565b91505092959194509250565b6000806040838503121561196f5761196e61241c565b5b600061197d8582860161177e565b925050602061198e85828601611793565b9150509250929050565b600080604083850312156119af576119ae61241c565b5b60006119bd8582860161177e565b92505060206119ce85828601611800565b9150509250929050565b6000602082840312156119ee576119ed61241c565b5b60006119fc848285016117a8565b91505092915050565b600060208284031215611a1b57611a1a61241c565b5b6000611a29848285016117bd565b91505092915050565b600060208284031215611a4857611a4761241c565b5b6000611a5684828501611800565b91505092915050565b611a688161218f565b82525050565b611a77816121a1565b82525050565b6000611a8882612091565b611a9281856120a7565b9350611aa2818560208601612212565b611aab81612421565b840191505092915050565b6000611ac18261209c565b611acb81856120b8565b9350611adb818560208601612212565b611ae481612421565b840191505092915050565b6000611afa8261209c565b611b0481856120c9565b9350611b14818560208601612212565b80840191505092915050565b60008154611b2d81612245565b611b3781866120c9565b94506001821660008114611b525760018114611b6357611b96565b60ff19831686528186019350611b96565b611b6c8561207c565b60005b83811015611b8e57815481890152600182019150602081019050611b6f565b838801955050505b50505092915050565b6000611bac6032836120b8565b9150611bb782612432565b604082019050919050565b6000611bcf6025836120b8565b9150611bda82612481565b604082019050919050565b6000611bf2601c836120b8565b9150611bfd826124d0565b602082019050919050565b6000611c156024836120b8565b9150611c20826124f9565b604082019050919050565b6000611c386019836120b8565b9150611c4382612548565b602082019050919050565b6000611c5b6016836120b8565b9150611c6682612571565b602082019050919050565b6000611c7e6029836120b8565b9150611c898261259a565b604082019050919050565b6000611ca1603e836120b8565b9150611cac826125e9565b604082019050919050565b6000611cc46020836120b8565b9150611ccf82612638565b602082019050919050565b6000611ce76005836120c9565b9150611cf282612661565b600582019050919050565b6000611d0a602f836120b8565b9150611d158261268a565b604082019050919050565b6000611d2d6018836120b8565b9150611d38826126d9565b602082019050919050565b6000611d506021836120b8565b9150611d5b82612702565b604082019050919050565b6000611d73602e836120b8565b9150611d7e82612751565b604082019050919050565b611d92816121f9565b82525050565b6000611da48285611b20565b9150611db08284611aef565b9150611dbb82611cda565b91508190509392505050565b6000602082019050611ddc6000830184611a5f565b92915050565b6000608082019050611df76000830187611a5f565b611e046020830186611a5f565b611e116040830185611d89565b8181036060830152611e238184611a7d565b905095945050505050565b6000602082019050611e436000830184611a6e565b92915050565b60006020820190508181036000830152611e638184611ab6565b905092915050565b60006020820190508181036000830152611e8481611b9f565b9050919050565b60006020820190508181036000830152611ea481611bc2565b9050919050565b60006020820190508181036000830152611ec481611be5565b9050919050565b60006020820190508181036000830152611ee481611c08565b9050919050565b60006020820190508181036000830152611f0481611c2b565b9050919050565b60006020820190508181036000830152611f2481611c4e565b9050919050565b60006020820190508181036000830152611f4481611c71565b9050919050565b60006020820190508181036000830152611f6481611c94565b9050919050565b60006020820190508181036000830152611f8481611cb7565b9050919050565b60006020820190508181036000830152611fa481611cfd565b9050919050565b60006020820190508181036000830152611fc481611d20565b9050919050565b60006020820190508181036000830152611fe481611d43565b9050919050565b6000602082019050818103600083015261200481611d66565b9050919050565b60006020820190506120206000830184611d89565b92915050565b6000612030612041565b905061203c8282612277565b919050565b6000604051905090565b600067ffffffffffffffff821115612066576120656123de565b5b61206f82612421565b9050602081019050919050565b60008190508160005260206000209050919050565b600081519050919050565b600081519050919050565b600082825260208201905092915050565b600082825260208201905092915050565b600081905092915050565b60006120df826121f9565b91506120ea836121f9565b9250827fffffffffffffffffffffffffffffffffffffffffffffffffffffffffffffffff0382111561211f5761211e612322565b5b828201905092915050565b6000612135826121f9565b9150612140836121f9565b9250826121505761214f612351565b5b828204905092915050565b6000612166826121f9565b9150612171836121f9565b92508282101561218457612183612322565b5b828203905092915050565b600061219a826121d9565b9050919050565b60008115159050919050565b60007fffffffff0000000000000000000000000000000000000000000000000000000082169050919050565b600073ffffffffffffffffffffffffffffffffffffffff82169050919050565b6000819050919050565b82818337600083830152505050565b60005b83811015612230578082015181840152602081019050612215565b8381111561223f576000848401525b50505050565b6000600282049050600182168061225d57607f821691505b6020821081141561227157612270612380565b5b50919050565b61228082612421565b810181811067ffffffffffffffff8211171561229f5761229e6123de565b5b80604052505050565b60006122b3826121f9565b91507fffffffffffffffffffffffffffffffffffffffffffffffffffffffffffffffff8214156122e6576122e5612322565b5b600182019050919050565b60006122fc826121f9565b9150612307836121f9565b92508261231757612316612351565b5b828206905092915050565b7f4e487b7100000000000000000000000000000000000000000000000000000000600052601160045260246000fd5b7f4e487b7100000000000000000000000000000000000000000000000000000000600052601260045260246000fd5b7f4e487b7100000000000000000000000000000000000000000000000000000000600052602260045260246000fd5b7f4e487b7100000000000000000000000000000000000000000000000000000000600052603260045260246000fd5b7f4e487b7100000000000000000000000000000000000000000000000000000000600052604160045260246000fd5b600080fd5b600080fd5b600080fd5b600080fd5b6000601f19601f8301169050919050565b7f4552433732313a207472616e7366657220746f206e6f6e20455243373231526560008201527f63656976657220696d706c656d656e7465720000000000000000000000000000602082015250565b7f4552433732313a207472616e736665722066726f6d20696e636f72726563742060008201527f6f776e6572000000000000000000000000000000000000000000000000000000602082015250565b7f4552433732313a20746f6b656e20616c7265616479206d696e74656400000000600082015250565b7f4552433732313a207472616e7366657220746f20746865207a65726f2061646460008201527f7265737300000000000000000000000000000000000000000000000000000000602082015250565b7f4552433732313a20617070726f766520746f2063616c6c657200000000000000600082015250565b7f457863656564206d6178696d756d2020737570706c7900000000000000000000600082015250565b7f4552433732313a2061646472657373207a65726f206973206e6f74206120766160008201527f6c6964206f776e65720000000000000000000000000000000000000000000000602082015250565b7f4552433732313a20617070726f76652063616c6c6572206973206e6f7420746f60008201527f6b656e206f776e6572206e6f7220617070726f76656420666f7220616c6c0000602082015250565b7f4552433732313a206d696e7420746f20746865207a65726f2061646472657373600082015250565b7f2e6a736f6e000000000000000000000000000000000000000000000000000000600082015250565b7f4552433732314d657461646174613a2055524920717565727920666f72206e6f60008201527f6e6578697374656e7420746f6b656e0000000000000000000000000000000000602082015250565b7f4552433732313a20696e76616c696420746f6b656e2049440000000000000000600082015250565b7f4552433732313a20617070726f76616c20746f2063757272656e74206f776e6560008201527f7200000000000000000000000000000000000000000000000000000000000000602082015250565b7f4552433732313a2063616c6c6572206973206e6f7420746f6b656e206f776e6560008201527f72206e6f7220617070726f766564000000000000000000000000000000000000602082015250565b6127a98161218f565b81146127b457600080fd5b50565b6127c0816121a1565b81146127cb57600080fd5b50565b6127d7816121ad565b81146127e257600080fd5b50565b6127ee816121f9565b81146127f957600080fd5b5056fea26469706673582212201e0f8642078267c48819d83c9d97c2f7c4e9479907ccb7ea0d702ef00a7e96b764736f6c63430008070033",
  "linkReferences": {},
  "deployedLinkReferences": {}
}